:1000000000800020BD010000519E0000099E0000FC
:10001000099E0000099E0000099E0000099E000044
:10002000099E0000099E0000099E0000519E0000EC
:10003000519E0000099E0000CD9B0000D19C000055
:10004000519E0000519E0000519E0000519E0000F4
:10005000519E0000519E0000519E0000519E0000E4
:10006000519E0000519E0000519E0000519E0000D4
:10007000519E0000519E0000519E0000519E0000C4
:10008000519E0000519E0000519E0000519E0000B4
:10009000519E0000519E0000519E0000519E0000A4
:1000A000D5770000E1770000519E0000519E0000CE
:1000B000519E0000519E0000519E0000519E000084
:1000C000519E0000519E0000519E0000519E000074
:1000D000519E0000519E0000519E0000519E000064
:1000E000519E0000519E0000519E0000519E000054
:1000F000519E0000B59E0000519E0000E19F00004F
:10010000519E00000DA10000519E0000519E000074
:10011000519E0000519E0000519E0000519E000023
:10012000519E0000519E0000519E0000519E000013
:10013000519E0000519E0000519E0000519E000003
:10014000519E0000519E0000519E0000519E0000F3
:10015000A5810000B9810000CD810000E18100008F
:10016000C56E00002D8B0000519E0000519E0000C6
:10017000519E0000519E0000519E0000519E0000C3
:10018000519E0000519E0000519E0000519E0000B3
:10019000519E0000519E0000519E0000519E0000A3
:1001A000519E0000519E0000519E0000519E000093
:1001B000519E0000519E0000519E0000564B4CF293
:1001C000205210B51A804DF628121A8000BF00BFC9
:1001D00009F042FE514B4FF010621A60504A9A608B
:1001E000504ADA60504A136813F4807304D14F49BF
:1001F0000B604FF4A85313604D4B1A78110703D5C9
:100200001A7842F008021A704A4B4B492A221A7097
:100210004A4A4B4B8B4204D252F8040F43F8040B6A
:10022000F8E7484B484900228B4202D243F8042B9E
:10023000FAE74649464A002352F8230041F82300D2
:1002400001336F2BF8D1434B434A802103F8011B44
:100250009342FBD1414B3D4A1A60414B8A221A70AE
:10026000A3F5805324225A70A0221A709A7992071B
:10027000FCD59A79D406FCD43A4A937903F00C035E
:10028000082B384BF9D105221A7143225A719A79F9
:100290009006FCD5334A9179324B4906FBD5324A58
:1002A0004FF0817111600521516020221A709A79F6
:1002B00002F00C020C2AFAD12C4B2D4A1A602D4B5D
:1002C0002D4A1A6000225A60072243F8042C2B4A58
:1002D000C3F80C2D62B608F0DFFA144B1B68DA077E
:1002E00005D5274808F048F9264B274A1A60274BBE
:1002F0001B785B0609D5234C234B22689A4204D114
:100300001F4808F039F9002323600CF0CFF809F0FA
:10031000A9FD07F06FFFFEE70E2005403080044086
:10032000823F04000100002B10D0034014D0034092
:1003300002D0074000E00740D492FF1FC0DC00005D
:100340002087FF1FD892FF1F489FFF1F0082FF1FBB
:100350000000000000E400E05FE400E008ED00E0E1
:1003600000500640004006404480044004800440A1
:10037000C010050014E000E03F190100000020203B
:10038000DE06915D1CE00340A5C3945A00F00740CF
:10039000FFFFFFFFFFFFFFFFFFFFFFFFFFFFFFFF6D
:1003A000FFFFFFFFFFFFFFFFFFFFFFFFFFFFFFFF5D
:1003B000FFFFFFFFFFFFFFFFFFFFFFFFFFFFFFFF4D
:1003C000FFFFFFFFFFFFFFFFFFFFFFFFFFFFFFFF3D
:1003D000FFFFFFFFFFFFFFFFFFFFFFFFFFFFFFFF2D
:1003E000FFFFFFFFFFFFFFFFFFFFFFFFFFFFFFFF1D
:1003F000FFFFFFFFFFFFFFFFFFFFFFFFFFFFFFFF0D
:10040000FFFFFFFFFFFFFFFFFFFFFFFFDEF9FFFF23
:1004100010B5054C237833B9044B13B10448AFF33E
:1004200000800123237010BDD892FF1F0000000040
:10043000BCDC0000084B10B51BB108490848AFF3FD
:1004400000800848036803B910BD074B002BFBD0A0
:10045000BDE81040184700BF00000000DC92FF1FFD
:10046000BCDC0000D492FF1F0000000043680B704A
:1004700043681B0A4B70C3888B70C379CB70836849
:100480000B7183681B0A4B7143898B71C37ACB71E3
:10049000082070470B7843604A7843EA02234360A0
:1004A0008A7843EA02434360CA7843EA02634360BE
:1004B0000B7983604A7943EA022383608A7943EAAD
:1004C00002438360CA7943EA02638360082070476D
:1004D0000048704724D500000048704734D500001C
:1004E000F0B50C460A788280064614F8010F002306
:1004F00042EA0022B2801A4614F8010F98400833ED
:10050000202B42EA0002F7D1971D062F58D901F19E
:10051000050E551D73464C1913F8010F03F8010C15
:10052000A342F9D100234B5518460D44C6F808E004
:1005300015F8014F84400830202843EA0403F7D11E
:10054000381D0344834209D909320A440446013460
:1005500012F8015F02F8015CA342F8D80138CF1805
:100560000024084407F8014C2246F06017F8015BAC
:1005700095400832202A44EA0504F7D1181D0444A6
:10058000A04209D203330B440246013213F8015F43
:1005900003F8015CA242F8D30D1901380844002386
:1005A00005F8013C3061A8786B780A5DED780104AC
:1005B00041EA0323134343EA0563201D7361F0BD41
:1005C000551D01F1050EADE70048704758D50000F4
:1005D0000048704774D500000B78F0B40371002315
:1005E00006460C461D4614F8012F9A400833202B6E
:1005F00045EA0205F7D1681D052801F1040708D96D
:100600002C1D3B460C4413F8012F03F8012C9C428F
:10061000F9D10D4400232B71B760F0BC704700BFC7
:100620000048704798D5000000487047ACD50000DE
:100630000048704708D5000000487047D0D500003A
:1006400043680B701A0C10B41C0A1B0E4C708A7095
:10065000CB7083680B711C0A1A0C1B0E4C718A71CB
:10066000CB71C3680B72180A1A0C1B0E48728A727F
:100670000C20CB7210BC70470B6843604B688360E2
:100680008B68C3600C20704700487047F4D50000A9
:10069000004870470CD600000048704730D6000074
:1006A0000048704748D60000004870476CD60000EC
:1006B0000048704780D6000043680B701A0C10B4D5
:1006C0001C0A1B0E4C708A70CB7083680B711C0A5D
:1006D0001A0C1B0E4C718A71CB71C3680B72180A0D
:1006E0001A0C1B0E48728A720C20CB7210BC704719
:1006F0000B6843604B6883608B68C3600C20704755
:1007000000487047A4D6000000487047B4D60000E7
:1007100000487047D8D6000000487047E8D600006F
:1007200003790B7043794B7083798B70C379CB70ED
:10073000037A0B71437A4B71062070470B78037173
:100740004B7843718B788371CB78C3710B790372CB
:100750004B79437206207047004870470CD7000061
:100760000048704720D7000003790B7043794B7025
:1007700083798B70032070470B7803714B7843713A
:100780008B788371032070470048704744D700007E
:10079000004870475CD70000F0B50A4B0A4F1B6851
:1007A0000A4D0B498668C468026A2E6083B00C60EB
:1007B0000193DDF804E0074BC7F800E01A6003B0CE
:1007C000F0BD00BF509CFF1FA893FF1F709BFF1F31
:1007D000749BFF1F309AFF1F90F8F804704700BF0A
:1007E000006A704700487047A4D600000048704770
:1007F000B4D60000406B7047004870476CD60000CC
:100800000048704780D6000008F0BABF43682DE961
:10081000F0470B7043681B0A4B70C3888B70C37919
:10082000CB704368002B00F085800A460025042623
:10083000C36853F8253013711C0C1F0A1B0E9471EA
:100840005771D37143680135AB42344602F104025B
:1008500006F10406ECD804F1080204F1050A04F1DB
:10086000060904F1070804F1090C04F10A0E04F169
:100870000B0517460C3403698B5503691B0A01F8F5
:100880000A30438A01F80930C37C01F80830036953
:10089000F3B101EB070E75460022836953F822304D
:1008A0000EF822301C0C1E0A1B0EAC706E70EB7022
:1008B0000369013293423C4605F1040507F1040740
:1008C000EBD804F1050C04F1060EE51D3A46083498
:1008D000C3698B54C3691B0A01F80C30C38B01F840
:1008E0000E30C37F4B55C3690BB30F4680460026BD
:1008F000D8F8243053F826000CF0E2FAB10005468F
:100900003A19002325FA03F00833202B02F8010BD3
:10091000F8D1D8F824300434381959582A4607F049
:1009200071FCD8F81C300136B3422C44E0D8204684
:10093000BDE8F087082217460C240B254FF00A0E5D
:100940004FF0090C4FF007084FF006094FF0050A69
:10095000042690E770B503790B70064680680D4653
:100960000CF0AEFA2A460446002324FA03F10833B9
:10097000202B02F8011FF8D1B168681D224607F04C
:1009800041FC601D70BD00BFF8B583880B70838883
:100990001B0A4B70064680680D460CF091FA030E58
:1009A000010A020C6B71A8702A71E97002460446B4
:1009B000B168A81D07F026FCF0680CF081FA611DF3
:1009C000024629440634002322FA03F00833202B80
:1009D00001F8010FF8D104342819F168144407F024
:1009E00011FC30690CF06CFA2A190746002327FA2B
:1009F00003F10833202B02F8011BF8D10434281925
:100A00003A46316907F0FEFB381973692B540544E7
:100A1000190A1A0C1B0E6970AA70EB700430F8BD2D
:100A2000084608F097BF00BF2DE9F04F43680C68F7
:100A30009C4283B005460E4600F2B3806C60002CE9
:100A400000F0B88005F1080C334600274FF0040E83
:100A50009C795A79197993F80780E868240444EA64
:100A600002220A4342EA0862AA60DCF8002040F849
:100A700027206A680137BA42714603F104030EF178
:100A8000040EE5D801F1080847464B1D881DCA1D14
:100A900001F1090A01F10A0B01F10B0901F10C0442
:100AA000305CF35C16F80E1016F802E02A690004B8
:100AB00040EA03230B4343EA0E63934200F2908023
:100AC0002B613BB305F1140CF3194FF0000E9C7829
:100AD0005A78197893F80380A869240444EA02221A
:100AE0000A4342EA08626A61DCF8002040F82E20DE
:100AF0002A690EF1010E72453C4603F1040307F129
:100B00000407E4D804F1050A04F1060B04F107090F
:100B1000B846083416F80B2016F80A0016F8083004
:100B200016F80970E969120442EA0022134343EA05
:100B300007678F424ED8EF617FB30027BC4605F1AF
:100B4000200E00231946301910F8012B9A40083363
:100B5000202B41EA0201F7D104F104084144884501
:100B600009D2E31C33444246013213F8010F03F863
:100B7000010C8A42F8D3721808F1FF3802F801CC50
:100B800006EB08032B626A6ADEF8003042F8273071
:100B9000EB690137BB420C46D3D8204603B0BDE811
:100BA000F08FA100C0680BF06DFF6C60E860002C56
:100BB0007FF448AF4FF0080847460C244FF00B096C
:100BC0004FF00A0B4FF0090A0722062005234FF0C9
:100BD000040E65E7B900686A0BF054FF6862AAE783
:100BE0009900A86901930BF04DFF019BA86167E78D
:100BF00010B504460C48A368E268616806F068FA1C
:100C0000A368E2686168094806F062FAA368E268CE
:100C10006168074806F05CFAA368E2686168054805
:100C2000BDE8104006F054BAD093FF1F189BFF1F79
:100C3000009AFF1F5894FF1F0B6803614B684361C4
:100C40008B688361C3690C30184700BFF8B506464E
:100C50004068C0F3C7520C460346002A58D002F53C
:100C60006072110149B2C2F30715C3F3C3421143C5
:100C70005F010022A171D910DB1221712270627014
:100C8000A270E770637100210BF0B6FB002848D119
:100C9000E571B068C0F3C7520346002A3ED002F5A2
:100CA0006072110149B2C2F30715C3F3C342114385
:100CB0005F010022A173D910DB12217322726272CC
:100CC000A272E772637300210BF096FB90BBE57391
:100CD000F068C0F3C7520346EAB102F56072110131
:100CE00049B2C2F30715C3F3C34211435F010022A7
:100CF000DE10DB12A17522746274A274E77426758B
:100D0000637500210BF078FB78B9E5751820F8BD04
:100D100015461146A9E715461146E4E71546114662
:100D2000C3E765F07F02E271B3E765F07F02E27529
:100D30001820F8BD65F07F02E273C9E7CA7852094E
:100D400070B442610346087942EAC0025A614879A8
:100D500042EAC02058618A79D20402F4F0020243C8
:100D60005A61CD798E792C0104F4FE6454EA16148C
:100D700003F10C0005D0A4F5607442EAC4525A6134
:100D8000CD7925F07F0542EA05625A61CA7A520997
:100D90009A610C7B42EAC4029A614C7B42EAC42409
:100DA0009C618A7BD20402F4F00222439A61CD7BDB
:100DB0008E7B2C0104F4FE6454EA161405D0A4F5CD
:100DC000607442EAC4529A61CD7B25F07F0542EA05
:100DD00005629A61CA7C5209DA610C7D42EAC4025A
:100DE000DA614C7D42EAC424DC618A7DD20402F4DB
:100DF000F0022243DA61CD7D8E7D2C0104F4FE6485
:100E000054EA161405D0A4F5607442EAC452DA61BB
:100E1000CD7D25F07F0542EA0562DA61CA7E52097E
:100E20005A620C7F42EAC4025A624C7F42EAC424EE
:100E30005C628A7FD20402F4F00222435A62CD7FC0
:100E40008E7F2C0104F4FE6454EA161405D0A4F538
:100E5000607442EAC4525A62CD7F25F07F0542EAAF
:100E600005625A6291F8232052099A6291F824404F
:100E700042EAC4029A6291F8254042EAC4249C6284
:100E800091F82620D20402F4F00222439A6291F8EB
:100E9000275091F826602C0104F4FE6454EA1614DD
:100EA00006D0A4F5607442EAC4529A6291F82750C1
:100EB00025F07F0542EA05629A6291F82B205209DB
:100EC000DA6291F82C4042EAC402DA6291F82D40CD
:100ED00042EAC424DC6291F82E20D20402F4F0022B
:100EE0002243DA6291F82F5091F82E602C0104F41D
:100EF000FE6454EA161406D0A4F5607442EAC452A3
:100F0000DA6291F82F5025F07F0542EA0562DA6235
:100F100070BC1B6B184700BFCB785B0930B4836093
:100F20000A7943EAC20383604A7943EAC2228260B3
:100F30008B79DB0403F4F00313438360CC798D7960
:100F4000220102F4FE6252EA151205D0A2F5607287
:100F500043EAC2538360CC7924F07F0443EA0463FC
:100F60008360CB7A5B09C3600A7B43EAC203C36038
:100F70004A7B43EAC222C2608B7BDB0403F4F003AA
:100F80001343C360CC7B8D7B220102F4FE6252EAE4
:100F9000151205D0A2F5607243EAC253C360CC7B40
:100FA00024F07F0443EA0463C360CB7C5B090361E4
:100FB0000A7D43EAC20303614A7D43EAC222026119
:100FC0008B7DDB0403F4F00313430361CC7D8D7D43
:100FD000220102F4FE6252EA151205D0A2F56072F7
:100FE00043EAC2530361CC7D24F07F0443EA0463E7
:100FF0000361CB7E5B0983610A7F43EAC20383619D
:101000004A7F43EAC22282618B7FDB0403F4F00350
:1010100013438361CC7F8D7F220102F4FE6252EA8A
:10102000151205D0A2F5607243EAC2538361CC7FEA
:1010300024F07F0443EA0463836191F823305B0961
:10104000C36191F8242043EAC203C36191F82520CB
:1010500043EAC222C26191F82630DB0403F4F003B4
:101060001343C36191F8274091F82650220102F4FE
:10107000FE6252EA151206D0A2F5607243EAC2532C
:10108000C36191F8274024F07F0443EA0463C361FD
:1010900091F82B305B09036291F82C2043EAC203DC
:1010A000036291F82D2043EAC222026291F82E30A9
:1010B000DB0403F4F0031343036291F82F4091F82B
:1010C0002E50220102F4FE6252EA151206D0A2F559
:1010D000607243EAC253036291F82F4024F07F0408
:1010E00043EA0463036230BC30207047CB785B096D
:1010F00030B443600A7943EAC20343604A7943EA61
:10110000C22242608B79DB0403F4F0031343436093
:10111000CC798D79220102F4FE6252EA151205D0D3
:10112000A2F5607243EAC2534360CC7924F07F0495
:1011300043EA04634360CB7A5B0983600A7B43EA3A
:10114000C20383604A7B43EAC22282608B7BDB045A
:1011500003F4F00313438360CC7B8D7B220102F404
:10116000FE6252EA151205D0A2F5607243EAC2533C
:101170008360CC7B24F07F0443EA04638360CB7CF0
:101180005B09C3600A7D43EAC203C3604A7D43EA48
:10119000C222C2608B7DDB0403F4F0031343C360FF
:1011A000CC7D8D7D220102F4FE6252EA151205D03B
:1011B000A2F5607243EAC253C360CC7D24F07F0481
:1011C00043EA0463C36030BC18207047F8B5054695
:1011D0008068C0F3C7520C460346002A00F0CF8057
:1011E00002F56072110149B2C2F30716C3F3C3429C
:1011F00011435F010022A171D910DB12217122700D
:101200006270A270E770637100210BF0F5F800289E
:1012100040F0C780E671E868C0F3C7520346002A71
:1012200000F0BC8002F56072110149B2C2F30716EA
:10123000C3F3C34211435F010022A173D910DB1233
:10124000217322726272A272E772637300210BF043
:10125000D3F8002840F0BC80E6732869C0F3C75279
:101260000346002A00F0978002F56072110149B22E
:10127000C2F30716C3F3C34211435F010022A175F5
:10128000D910DB12217522746274A274E77463753D
:1012900000210BF0B1F8002840F09680E675A869AF
:1012A000C0F3C7520346002A72D002F560721101E2
:1012B00049B2C2F30716C3F3C34211435F010022D0
:1012C000A177D910DB12217722766276A276E776B3
:1012D000637700210BF090F8002871D1E677E86978
:1012E000C0F3C7520346002A4FD002F560721101C5
:1012F00049B2C2F30716C3F3C34211435F01002290
:1013000084F82610D910DB1284F8241084F82020E9
:1013100084F8212084F8222084F8237084F8253072
:1013200000210BF069F8002845D184F82760286A6D
:10133000C0F3C75203462AB302F56072110149B2E5
:10134000C2F30715C3F3C34211435F010022DE104D
:10135000DB1284F82E1084F8282084F8292084F8E1
:101360002A2084F82B7084F82C6084F82D3000211A
:101370000BF042F8C8B984F82F503020F8BD16465B
:10138000114633E715461146DCE716461146B2E72B
:10139000164611468FE7164611466BE7164611466C
:1013A00046E766F07F02E27135E765F07F0284F878
:1013B0002F203020F8BD66F07F0284F82720B6E7A2
:1013C00066F07F02E2778AE766F07F02E27566E701
:1013D00066F07F02E27340E7F8B505468068C0F327
:1013E000C7520C460346002A00F04D8102F5607298
:1013F000110149B2C2F30716C3F3C34211435F019F
:101400000022A171D910DB12217122706270A270CA
:10141000E770637100210AF0EFFF002840F04E8171
:10142000E671E868C0F3C7520346002A00F0438122
:1014300002F56072110149B2C2F30716C3F3C34249
:1014400011435F010022A173D910DB1221732272B4
:101450006272A272E772637300210AF0CDFF002866
:1014600040F05281E6732869C0F3C7520346002A50
:1014700000F01E8102F56072110149B2C2F3071635
:10148000C3F3C34211435F010022A175D910DB12DF
:10149000217522746274A274E774637500210AF0E6
:1014A000ABFF002840F02C81E675A869C0F3C75255
:1014B0000346002A00F0F98002F56072110149B27A
:1014C000C2F30716C3F3C34211435F010022A177A1
:1014D000D910DB12217722766276A276E7766377DF
:1014E00000210AF089FF002840F00681E677E869CC
:1014F000C0F3C7520346002A00F0D48002F56072A0
:10150000110149B2C2F30716C3F3C34211435F018D
:10151000002284F82610D910DB1284F8241084F8F5
:10152000202084F8212084F8222084F8237084F875
:10153000253000210AF060FF002840F0D88084F8B0
:101540002760286AC0F3C7520346002A00F0A7802C
:1015500002F56072110149B2C2F30716C3F3C34228
:1015600011435F01002284F82E10D910DB1284F899
:101570002C1084F8282084F8292084F82A2084F864
:101580002B7084F82D3000210AF036FF002840F03F
:10159000A98084F82F60A86AC0F3C7520346002AC6
:1015A0007AD002F56072110149B2C2F30716C3F393
:1015B000C34211435F01002284F83610D910DB12B8
:1015C00084F8341084F8302084F8312084F83220F4
:1015D00084F8337084F8353000210AF00DFF0028BC
:1015E0007BD184F83760E86AC0F3C7520346002A0B
:1015F0004FD002F56072110149B2C2F30716C3F36E
:10160000C34211435F01002284F83E10D910DB125F
:1016100084F83C1084F8382084F8392084F83A2083
:1016200084F83B7084F83D3000210AF0E5FE002884
:101630004ED184F83F60286BC0F3C75203462AB3EB
:1016400002F56072110149B2C2F30715C3F3C34238
:1016500011435F010022DE10DB1284F8461084F88B
:10166000402084F8412084F8422084F8437084F8B4
:10167000446084F8453000210AF0BEFE10BB84F8B7
:1016800047504820F8BD16461146B5E615461146A6
:10169000DCE716461146B2E71646114687E71646BE
:1016A00011465BE7164611462EE71646114609E736
:1016B00016461146E4E616461146BFE666F07F027E
:1016C000E271AEE665F07F0284F847204820F8BD5D
:1016D00066F07F0284F83F20ADE766F07F0284F871
:1016E000372080E766F07F0284F82F2053E766F00A
:1016F0007F0284F8272024E766F07F02E277F6E68F
:1017000066F07F02E275D0E666F07F02E273AAE639
:10171000CB785B0930B483600A7943EAC203836003
:101720004A7943EAC22282608B79DB0403F4F00336
:1017300013438360CC798D79220102F4FE6252EA70
:10174000151205D0A2F5607243EAC2538360CC79CA
:1017500024F07F0443EA04638360CB7A5B09C360AF
:101760000A7B43EAC203C3604A7B43EAC222C260E7
:101770008B7BDB0403F4F0031343C360CC7B8D7BD2
:10178000220102F4FE6252EA151205D0A2F560723F
:1017900043EAC253C360CC7B24F07F0443EA046372
:1017A000C360CB7C5B0903610A7D43EAC20303612A
:1017B0004A7D43EAC22202618B7DDB0403F4F0031D
:1017C00013430361CC7D8D7D220102F4FE6252EA57
:1017D000151205D0A2F5607243EAC2530361CC7DB5
:1017E00024F07F0443EA04630361CB7E5B098361D9
:1017F0000A7F43EAC20383614A7F43EAC2228261CD
:101800008B7FDB0403F4F00313438361CC7F8D7F74
:10181000220102F4FE6252EA151205D0A2F56072AE
:1018200043EAC2538361CC7F24F07F0443EA04631C
:10183000836191F823305B09C36191F8242043EA66
:10184000C203C36191F8252043EAC222C26191F824
:101850002630DB0403F4F0031343C36191F82740FF
:1018600091F82650220102F4FE6252EA151206D0C7
:10187000A2F5607243EAC253C36191F8274024F095
:101880007F0443EA0463C36191F82B305B09036270
:1018900091F82C2043EAC203036291F82D2043EA19
:1018A000C222026291F82E30DB0403F4F0031343EA
:1018B000036291F82F4091F82E50220102F4FE624B
:1018C00052EA151206D0A2F5607243EAC2530362CF
:1018D00091F82F4024F07F0443EA0463036291F8F7
:1018E00033305B09836291F8342043EAC203836298
:1018F00091F8352043EAC222826291F83630DB0447
:1019000003F4F0031343836291F8374091F83650A3
:10191000220102F4FE6252EA151206D0A2F56072AC
:1019200043EAC253836291F8374024F07F0443EACC
:101930000463836291F83B305B09C36291F83C20F9
:1019400043EAC203C36291F83D2043EAC222C26265
:1019500091F83E30DB0403F4F0031343C36291F8C3
:101960003F4091F83E50220102F4FE6252EA151205
:1019700006D0A2F5607243EAC253C36291F83F40B9
:1019800024F07F0443EA0463C36291F843305B09A7
:10199000036391F8442043EAC203036391F84520AE
:1019A00043EAC222026391F84630DB0403F4F003F9
:1019B0001343036391F8474091F84650220102F423
:1019C000FE6252EA151206D0A2F5607243EAC253D3
:1019D000036391F8474024F07F0443EA0463036300
:1019E00030BC4820704700BFF0B585B0364A019240
:1019F0000368364D039503228DF808201B6834498F
:101A00008B425AD100233821044680F8232205F165
:101A1000300E80F8241280F8253280F8263280F8C3
:101A2000273200F50A772E460FCE7645386079606A
:101A3000BA60FB60354607F11007F4D103CD0022F0
:101A40007960C2234FF0FF0EFE263D250721386046
:101A500084F8203284F81CE284F81D6284F81E5257
:101A600084F81F2284F8222284F8211204F2212310
:101A700004F25F2001E013F8011F83420A44FAD107
:101A8000D243144E84F8602204F21B2504F5187723
:101A900003E007F05FFFBD420BD0626815F8011F3D
:101AA00013681B68B3420846F3D010469847BD42FE
:101AB000F3D14FF0FF3005B0F0BD01AA07219847E0
:101AC0004FF0FF3005B0F0BDF4D3000080D7000028
:101AD000612C0000210A00001F4B10B41A68136823
:101AE000506819780478507A137A044201EA0301A5
:101AF0001AD0937A03F0030309B143F0040343F0CF
:101B000008039910013B91720D2B0BD8DFE803F00D
:101B10001E0719070A141E1E140A0719071ED36888
:101B2000013BD36010BC7047937A03F00303002994
:101B3000E7D043F00403E4E7D36810BC023BD36072
:101B40007047D36810BC0233D3607047D36810BCB1
:101B50000133D360704700BFC09BFF1F1F4B10B401
:101B60005A681368506819780478507A137A0442D6
:101B700001EA03011AD0937A03F0030309B143F099
:101B8000040343F008039910013B91720D2B0BD80D
:101B9000DFE803F01E0719070A141E1E140A0719AE
:101BA000071ED368013BD36010BC7047937A03F0E3
:101BB00003030029E7D043F00403E4E7D36810BC33
:101BC000023BD3607047D36810BC0233D3607047C8
:101BD000D36810BC0133D360704700BFC09BFF1FA8
:101BE0001F4B10B49A681368506819780478507ABB
:101BF000137A044201EA03011AD0937A03F0030333
:101C000009B143F0040343F008039910013B9172BA
:101C10000D2B0BD8DFE803F01E0719070A141E1E50
:101C2000140A0719071ED368013BD36010BC704724
:101C3000937A03F003030029E7D043F00403E4E7B9
:101C4000D36810BC023BD3607047D36810BC02332A
:101C5000D3607047D36810BC0133D360704700BFB6
:101C6000C09BFF1F1F4B10B4DA68136850681978C7
:101C70000478507A137A044201EA03011AD0937A65
:101C800003F0030309B143F0040343F00803991080
:101C9000013B91720D2B0BD8DFE803F01E071907EB
:101CA0000A141E1E140A0719071ED368013BD360CD
:101CB00010BC7047937A03F003030029E7D043F088
:101CC0000403E4E7D36810BC023BD3607047D368D9
:101CD00010BC0233D3607047D36810BC0133D360AB
:101CE000704700BFC09BFF1F1F4B10B41A691368D9
:101CF000506819780478507A137A044201EA030193
:101D00001AD0937A03F0030309B143F0040343F0BC
:101D100008039910013B91720D2B0BD8DFE803F0FB
:101D20001E0719070A141E1E140A0719071ED36876
:101D3000013BD36010BC7047937A03F00303002982
:101D4000E7D043F00403E4E7D36810BC023BD36060
:101D50007047D36810BC0233D3607047D36810BC9F
:101D60000133D360704700BFC09BFF1F1F4B10B4EF
:101D70005A691368506819780478507A137A0442C3
:101D800001EA03011AD0937A03F0030309B143F087
:101D9000040343F008039910013B91720D2B0BD8FB
:101DA000DFE803F01E0719070A141E1E140A07199C
:101DB000071ED368013BD36010BC7047937A03F0D1
:101DC00003030029E7D043F00403E4E7D36810BC21
:101DD000023BD3607047D36810BC0233D3607047B6
:101DE000D36810BC0133D360704700BFC09BFF1F96
:101DF0001F4B10B49A691368506819780478507AA8
:101E0000137A044201EA03011AD0937A03F0030320
:101E100009B143F0040343F008039910013B9172A8
:101E20000D2B0BD8DFE803F01E0719070A141E1E3E
:101E3000140A0719071ED368013BD36010BC704712
:101E4000937A03F003030029E7D043F00403E4E7A7
:101E5000D36810BC023BD3607047D36810BC023318
:101E6000D3607047D36810BC0133D360704700BFA4
:101E7000C09BFF1F1F4B10B4DA69136850681978B4
:101E80000478507A137A044201EA03011AD0937A53
:101E900003F0030309B143F0040343F0080399106E
:101EA000013B91720D2B0BD8DFE803F01E071907D9
:101EB0000A141E1E140A0719071ED368013BD360BB
:101EC00010BC7047937A03F003030029E7D043F076
:101ED0000403E4E7D36810BC023BD3607047D368C7
:101EE00010BC0233D3607047D36810BC0133D36099
:101EF000704700BFC09BFF1F1F4B10B41A6A1368C6
:101F0000506819780478507A137A044201EA030180
:101F10001AD0937A03F0030309B143F0040343F0AA
:101F200008039910013B91720D2B0BD8DFE803F0E9
:101F30001E0719070A141E1E140A0719071ED36864
:101F4000013BD36010BC7047937A03F00303002970
:101F5000E7D043F00403E4E7D36810BC023BD3604E
:101F60007047D36810BC0233D3607047D36810BC8D
:101F70000133D360704700BFC09BFF1F1F4B10B4DD
:101F80005A6A1368506819780478507A137A0442B0
:101F900001EA03011AD0937A03F0030309B143F075
:101FA000040343F008039910013B91720D2B0BD8E9
:101FB000DFE803F01E0719070A141E1E140A07198A
:101FC000071ED368013BD36010BC7047937A03F0BF
:101FD00003030029E7D043F00403E4E7D36810BC0F
:101FE000023BD3607047D36810BC0233D3607047A4
:101FF000D36810BC0133D360704700BFC09BFF1F84
:102000001F4B10B49A6A1368506819780478507A94
:10201000137A044201EA03011AD0937A03F003030E
:1020200009B143F0040343F008039910013B917296
:102030000D2B0BD8DFE803F01E0719070A141E1E2C
:10204000140A0719071ED368013BD36010BC704700
:10205000937A03F003030029E7D043F00403E4E795
:10206000D36810BC023BD3607047D36810BC023306
:10207000D3607047D36810BC0133D360704700BF92
:10208000C09BFF1F1F4B10B4DA6A136850681978A1
:102090000478507A137A044201EA03011AD0937A41
:1020A00003F0030309B143F0040343F0080399105C
:1020B000013B91720D2B0BD8DFE803F01E071907C7
:1020C0000A141E1E140A0719071ED368013BD360A9
:1020D00010BC7047937A03F003030029E7D043F064
:1020E0000403E4E7D36810BC023BD3607047D368B5
:1020F00010BC0233D3607047D36810BC0133D36087
:10210000704700BFC09BFF1F1F4B10B41A6B1368B2
:10211000506819780478507A137A044201EA03016E
:102120001AD0937A03F0030309B143F0040343F098
:1021300008039910013B91720D2B0BD8DFE803F0D7
:102140001E0719070A141E1E140A0719071ED36852
:10215000013BD36010BC7047937A03F0030300295E
:10216000E7D043F00403E4E7D36810BC023BD3603C
:102170007047D36810BC0233D3607047D36810BC7B
:102180000133D360704700BFC09BFF1F1F4B10B4CB
:102190005A6B1368506819780478507A137A04429D
:1021A00001EA03011AD0937A03F0030309B143F063
:1021B000040343F008039910013B91720D2B0BD8D7
:1021C000DFE803F01E0719070A141E1E140A071978
:1021D000071ED368013BD36010BC7047937A03F0AD
:1021E00003030029E7D043F00403E4E7D36810BCFD
:1021F000023BD3607047D36810BC0233D360704792
:10220000D36810BC0133D360704700BFC09BFF1F71
:102210001F4B10B49A6B1368506819780478507A81
:10222000137A044201EA03011AD0937A03F00303FC
:1022300009B143F0040343F008039910013B917284
:102240000D2B0BD8DFE803F01E0719070A141E1E1A
:10225000140A0719071ED368013BD36010BC7047EE
:10226000937A03F003030029E7D043F00403E4E783
:10227000D36810BC023BD3607047D36810BC0233F4
:10228000D3607047D36810BC0133D360704700BF80
:10229000C09BFF1F1F4B10B4DA6B1368506819788E
:1022A0000478507A137A044201EA03011AD0937A2F
:1022B00003F0030309B143F0040343F0080399104A
:1022C000013B91720D2B0BD8DFE803F01E071907B5
:1022D0000A141E1E140A0719071ED368013BD36097
:1022E00010BC7047937A03F003030029E7D043F052
:1022F0000403E4E7D36810BC023BD3607047D368A3
:1023000010BC0233D3607047D36810BC0133D36074
:10231000704700BFC09BFF1F1F4B10B41A6C13689F
:10232000506819780478507A137A044201EA03015C
:102330001AD0937A03F0030309B143F0040343F086
:1023400008039910013B91720D2B0BD8DFE803F0C5
:102350001E0719070A141E1E140A0719071ED36840
:10236000013BD36010BC7047937A03F0030300294C
:10237000E7D043F00403E4E7D36810BC023BD3602A
:102380007047D36810BC0233D3607047D36810BC69
:102390000133D360704700BFC09BFF1F1F4B10B4B9
:1023A0005A6C1368506819780478507A137A04428A
:1023B00001EA03011AD0937A03F0030309B143F051
:1023C000040343F008039910013B91720D2B0BD8C5
:1023D000DFE803F01E0719070A141E1E140A071966
:1023E000071ED368013BD36010BC7047937A03F09B
:1023F00003030029E7D043F00403E4E7D36810BCEB
:10240000023BD3607047D36810BC0233D36070477F
:10241000D36810BC0133D360704700BFC09BFF1F5F
:102420001F4B10B49A6C1368506819780478507A6E
:10243000137A044201EA03011AD0937A03F00303EA
:1024400009B143F0040343F008039910013B917272
:102450000D2B0BD8DFE803F01E0719070A141E1E08
:10246000140A0719071ED368013BD36010BC7047DC
:10247000937A03F003030029E7D043F00403E4E771
:10248000D36810BC023BD3607047D36810BC0233E2
:10249000D3607047D36810BC0133D360704700BF6E
:1024A000C09BFF1F1F4B10B4DA6C1368506819787B
:1024B0000478507A137A044201EA03011AD0937A1D
:1024C00003F0030309B143F0040343F00803991038
:1024D000013B91720D2B0BD8DFE803F01E071907A3
:1024E0000A141E1E140A0719071ED368013BD36085
:1024F00010BC7047937A03F003030029E7D043F040
:102500000403E4E7D36810BC023BD3607047D36890
:1025100010BC0233D3607047D36810BC0133D36062
:10252000704700BFC09BFF1F1F4B10B41A6D13688C
:10253000506819780478507A137A044201EA03014A
:102540001AD0937A03F0030309B143F0040343F074
:1025500008039910013B91720D2B0BD8DFE803F0B3
:102560001E0719070A141E1E140A0719071ED3682E
:10257000013BD36010BC7047937A03F0030300293A
:10258000E7D043F00403E4E7D36810BC023BD36018
:102590007047D36810BC0233D3607047D36810BC57
:1025A0000133D360704700BFC09BFF1F1F4B10B4A7
:1025B0005A6D1368506819780478507A137A044277
:1025C00001EA03011AD0937A03F0030309B143F03F
:1025D000040343F008039910013B91720D2B0BD8B3
:1025E000DFE803F01E0719070A141E1E140A071954
:1025F000071ED368013BD36010BC7047937A03F089
:1026000003030029E7D043F00403E4E7D36810BCD8
:10261000023BD3607047D36810BC0233D36070476D
:10262000D36810BC0133D360704700BFC09BFF1F4D
:102630001F4B10B49A6D1368506819780478507A5B
:10264000137A044201EA03011AD0937A03F00303D8
:1026500009B143F0040343F008039910013B917260
:102660000D2B0BD8DFE803F01E0719070A141E1EF6
:10267000140A0719071ED368013BD36010BC7047CA
:10268000937A03F003030029E7D043F00403E4E75F
:10269000D36810BC023BD3607047D36810BC0233D0
:1026A000D3607047D36810BC0133D360704700BF5C
:1026B000C09BFF1F1F4B10B4DA6D13685068197868
:1026C0000478507A137A044201EA03011AD0937A0B
:1026D00003F0030309B143F0040343F00803991026
:1026E000013B91720D2B0BD8DFE803F01E07190791
:1026F0000A141E1E140A0719071ED368013BD36073
:1027000010BC7047937A03F003030029E7D043F02D
:102710000403E4E7D36810BC023BD3607047D3687E
:1027200010BC0233D3607047D36810BC0133D36050
:10273000704700BFC09BFF1F1F4B10B41A6E136879
:10274000506819780478507A137A044201EA030138
:102750001AD0937A03F0030309B143F0040343F062
:1027600008039910013B91720D2B0BD8DFE803F0A1
:102770001E0719070A141E1E140A0719071ED3681C
:10278000013BD36010BC7047937A03F00303002928
:10279000E7D043F00403E4E7D36810BC023BD36006
:1027A0007047D36810BC0233D3607047D36810BC45
:1027B0000133D360704700BFC09BFF1F1F4B10B495
:1027C0005A6E1368506819780478507A137A044264
:1027D00001EA03011AD0937A03F0030309B143F02D
:1027E000040343F008039910013B91720D2B0BD8A1
:1027F000DFE803F01E0719070A141E1E140A071942
:10280000071ED368013BD36010BC7047937A03F076
:1028100003030029E7D043F00403E4E7D36810BCC6
:10282000023BD3607047D36810BC0233D36070475B
:10283000D36810BC0133D360704700BFC09BFF1F3B
:102840001F4B10B49A6E1368506819780478507A48
:10285000137A044201EA03011AD0937A03F00303C6
:1028600009B143F0040343F008039910013B91724E
:102870000D2B0BD8DFE803F01E0719070A141E1EE4
:10288000140A0719071ED368013BD36010BC7047B8
:10289000937A03F003030029E7D043F00403E4E74D
:1028A000D36810BC023BD3607047D36810BC0233BE
:1028B000D3607047D36810BC0133D360704700BF4A
:1028C000C09BFF1F1F4B10B4DA6E13685068197855
:1028D0000478507A137A044201EA03011AD0937AF9
:1028E00003F0030309B143F0040343F00803991014
:1028F000013B91720D2B0BD8DFE803F01E0719077F
:102900000A141E1E140A0719071ED368013BD36060
:1029100010BC7047937A03F003030029E7D043F01B
:102920000403E4E7D36810BC023BD3607047D3686C
:1029300010BC0233D3607047D36810BC0133D3603E
:10294000704700BFC09BFF1F1F4B10B41A6F136866
:10295000506819780478507A137A044201EA030126
:102960001AD0937A03F0030309B143F0040343F050
:1029700008039910013B91720D2B0BD8DFE803F08F
:102980001E0719070A141E1E140A0719071ED3680A
:10299000013BD36010BC7047937A03F00303002916
:1029A000E7D043F00403E4E7D36810BC023BD360F4
:1029B0007047D36810BC0233D3607047D36810BC33
:1029C0000133D360704700BFC09BFF1F1F4B10B483
:1029D0005A6F1368506819780478507A137A044251
:1029E00001EA03011AD0937A03F0030309B143F01B
:1029F000040343F008039910013B91720D2B0BD88F
:102A0000DFE803F01E0719070A141E1E140A07192F
:102A1000071ED368013BD36010BC7047937A03F064
:102A200003030029E7D043F00403E4E7D36810BCB4
:102A3000023BD3607047D36810BC0233D360704749
:102A4000D36810BC0133D360704700BFC09BFF1F29
:102A50001F4B10B49A6F1368506819780478507A35
:102A6000137A044201EA03011AD0937A03F00303B4
:102A700009B143F0040343F008039910013B91723C
:102A80000D2B0BD8DFE803F01E0719070A141E1ED2
:102A9000140A0719071ED368013BD36010BC7047A6
:102AA000937A03F003030029E7D043F00403E4E73B
:102AB000D36810BC023BD3607047D36810BC0233AC
:102AC000D3607047D36810BC0133D360704700BF38
:102AD000C09BFF1F1F4B10B4DA6F13685068197842
:102AE0000478507A137A044201EA03011AD0937AE7
:102AF00003F0030309B143F0040343F00803991002
:102B0000013B91720D2B0BD8DFE803F01E0719076C
:102B10000A141E1E140A0719071ED368013BD3604E
:102B200010BC7047937A03F003030029E7D043F009
:102B30000403E4E7D36810BC023BD3607047D3685A
:102B400010BC0233D3607047D36810BC0133D3602C
:102B5000704700BFC09BFF1F1F4B10B4D3F88020ED
:102B60001368506819780478507A137A044201EA9D
:102B700003011AD0937A03F0030309B143F004036D
:102B800043F008039910013B91720D2B0BD8DFE83D
:102B900003F01E0719070A141E1E140A0719071E40
:102BA000D368013BD36010BC7047937A03F00303F2
:102BB0000029E7D043F00403E4E7D36810BC023BEC
:102BC000D3607047D36810BC0233D3607047D368BA
:102BD00010BC0133D3607047C09BFF1F1F4B10B464
:102BE000D3F884201368506819780478507A137ADF
:102BF000044201EA03011AD0937A03F0030309B1F6
:102C000043F0040343F008039910013B91720D2B2C
:102C10000BD8DFE803F01E0719070A141E1E140A5A
:102C20000719071ED368013BD36010BC7047937A25
:102C300003F003030029E7D043F00403E4E7D3687B
:102C400010BC023BD3607047D36810BC0233D36022
:102C50007047D36810BC0133D3607047C09BFF1F1F
:102C60002DE9F041632984B003DD90F8F874002F5A
:102C700053D0136805460F4610461B6805F2232102
:102C80009847C2B2C0F30721561885F81E2247F3B1
:102C90000722F643FF234FF0FE0EFCB285F82222F6
:102CA000421C85F8206285F81F1285F81C3285F8D1
:102CB0001DE285F821420DDB00F22221294405F2B4
:102CC0002123002201E013F8014F99422244FAD156
:102CD000D343DBB22A1800F10807B7F5007F82F86A
:102CE00023321EDC002F05F5077616DD0730DFF8EE
:102CF0001081064405F21B2403E006F02BFEB442CB
:102D00000BD06A6814F8011F13681B684345084616
:102D1000F3D010469847B442F3D1384604B0BDE82A
:102D2000F081344A0192344C2B68039403228DF8CD
:102D300008201B6831498B4255D10023382185F882
:102D4000232204F1300E85F8241285F8253285F807
:102D5000263285F8273205F50A7627460FCF7745C4
:102D600030607160B260F3603C4606F11006F4D149
:102D700003CC00227160C2234FF0FF0EFE273D24DA
:102D80000721306085F8203285F81CE285F81D7235
:102D900085F81E4285F81F2285F8222285F8211227
:102DA00005F2212305F25F2001E013F8011F98428C
:102DB0000A44FAD1D243DFF8488085F8602205F250
:102DC0001B2405F5187603E006F0C4FDB4420ED0CE
:102DD0006A6814F8011F13681B6843450846F3D05E
:102DE00010469847F2E7284601AA072198474FF076
:102DF000FF3093E7F4D3000080D70000612C00007F
:102E0000210A000008B50E4804F0BEF90D4804F090
:102E1000FDFE0C4804F01EFF08B9002008BD0A485A
:102E200004F0F4FE084804F015FF0028F5D0074828
:102E300004F0ECFE0548BDE8084004F00BBF00BFFD
:102E40000488FF1F049BFF1FD49AFF1F0094FF1FDD
:102E500010B5002382B0224A0260044601AA4360F2
:102E60008360C3600DF102010DF106031D4804F0FB
:102E70000DFFBDF9020008F09BFC00221A4B08F080
:102E8000FDFC15A3D3E9002308F0F8FC08F0B8FF17
:102E90006060BDF9040008F08BFC0022124B08F0C2
:102EA000EDFC0DA3D3E9002308F0E8FC08F0A8FF2F
:102EB000A060BDF9060008F07BFC00220A4B08F078
:102EC000DDFC05A3D3E9002308F0D8FC08F098FF47
:102ED000E060204602B010BD00000060B89E2340B4
:102EE0003CD40000049BFF1F0000103FFFFFFFFFCA
:102EF00010B5002382B0264A0260044601AA43604E
:102F00008360C3600DF102010DF10603214804F056
:102F100017FFBDF9020008F04BFC19A3D3E9002309
:102F200008F0D6FD18A3D3E9002308F0A7FC08F0A9
:102F300067FF6060BDF9040008F03AFC10A3D3E914
:102F4000002308F0C5FD10A3D3E9002308F096FC88
:102F500008F056FFA060BDF9060008F029FC08A3A0
:102F6000D3E9002308F0B4FD07A3D3E9002308F058
:102F700085FC08F045FFE060204602B010BD00BFB0
:102F80000000000000606040000000A046DF913FAC
:102F90003CD40000D49AFF1F10B5002382B0264A0B
:102FA0000260044601AA43608360C3600DF1020120
:102FB0000DF10603214804F08BFEBDF9020008F074
:102FC000F7FB19A3D3E9002308F058FC18A3D3E9B1
:102FD000002308F053FC08F013FF6060BDF9040003
:102FE00008F0E6FB10A3D3E9002308F047FC10A388
:102FF000D3E9002308F042FC08F002FFA060BDF90D
:10300000060008F0D5FB08A3D3E9002308F036FC3E
:1030100007A3D3E9002308F031FC08F0F1FEE060DB
:10302000204602B010BD00BF000000403333E33F34
:10303000000000A0F7C6B03E3CD400000094FF1F83
:10304000F8B5044615460E46084602211F4605F00F
:10305000A9FB2846022105F0A5FB9F4A276052F8EC
:103060003610012301F50070E060237552F8352019
:10307000637502F5007700204BF680332761A0616D
:10308000013BFDD191F8003292F8002203F00103D8
:10309000D20744BF43F00203DBB2A37504F10C076F
:1030A000212E00F24983DFE816F03C0333032A03A4
:1030B000210318030F030603FD02F402EB02E202F0
:1030C000D9028C0283027A02710268025F02560200
:1030D0004D0244023B0232022902200217020E0274
:1030E0000502FC01F301EA01E101D70122007B4B5B
:1030F0007B49C3F884700422212005F07DF9012367
:103100002377212D00F21683DFE815F09C01920150
:1031100088017E0174016A01600156014C0142017F
:1031200038012E0124011A011001DB00D100C70073
:10313000BD00B300A9009F0095008B0081007700BF
:103140006D00630059004F0045003B003000220035
:10315000624B6349C3F884700422212005F04CF9C6
:10316000237F0122134423772046F8BD5B4B5D4942
:10317000C3F880700422202005F03EF9237F01224D
:10318000F0E7564B5849DF6704221F2005F034F959
:10319000237F0122E6E7514B54499F6704221E20FA
:1031A00005F02AF9237F0122DCE74C4B50495F6789
:1031B00004221D2005F020F9237F0122D2E7474B8E
:1031C0004C491F6704221C2005F016F9237F0122B9
:1031D000C8E7424B4849DF6604221B2005F00CF982
:1031E000237F0122BEE73D4B44499F6604221A20FB
:1031F00005F002F9237F0122B4E7384B40495F66AE
:103200000422192005F0F8F8237F0122AAE7334BA6
:103210003C491F660422182005F0EEF8237F0122A6
:10322000A0E72E4B3849DF650422172005F0E4F8AB
:10323000237F012296E7294B34499F6504221620FB
:1032400005F0DAF8237F01228CE7244B30495F65D3
:103250000422152005F0D0F8237F012282E71F4BBE
:103260002C491F650422142005F0C6F8237F012293
:1032700078E71A4B2849DF640422132005F0BCF8D4
:10328000237F01226EE7154B24499F6404221220FC
:1032900005F0B2F8237F012264E7104B20495F64F8
:1032A0000422112005F0A8F8237F01225AE70B4BD6
:1032B0001C491F640422102005F09EF8237F012280
:1032C00050E7064B1849DF6304220F2005F094F8FD
:1032D000237F012246E700BF30D90000C09BFF1FBB
:1032E000DD2B0000592B0000D52A0000512A0000D8
:1032F000CD29000049290000C52800004128000010
:10330000BD27000039270000B52600003126000047
:10331000AD25000029250000A5240000212400007F
:103320009D2300001923000095220000A94BAA4903
:103330009F6304220E2005F05FF8237F012211E72E
:10334000A44BA6495F6304220D2005F055F8237FA6
:10335000012207E79F4BA2491F6304220C2005F0BE
:103360004BF8237F0122FDE69A4B9E49DF6204223F
:103370000B2005F041F8237F0122F3E6954B9A4993
:103380009F6204220A2005F037F8237F0122E9E634
:10339000904B96495F620422092005F02DF8237FA7
:1033A0000122DFE68B4B92491F620422082005F0C0
:1033B00023F8237F0122D5E6864B8E49DF61042264
:1033C000072005F019F8237F0122CBE6814B8A49BB
:1033D0009F610422062005F00FF8237F0122C1E639
:1033E0007C4B86495F610422052005F005F8237FA8
:1033F0000122B7E6774B82491F610422104604F090
:10340000FBFF237F0122ADE6724B7E49DF60042281
:10341000032004F0F1FF237F0122A3E66D4B7A49DC
:103420009F600422022004F0E7FF237F012299E637
:10343000684B76495F600422012004F0DDFF237FA2
:1034400001228FE6634B72491F600422002004F0C2
:10345000D3FF237F012285E65E4B6E49C3F880705F
:103460000422202004F0C8FF012349E6594B6A4991
:10347000DF6704221F2004F0BFFF012340E6554B05
:1034800066499F6704221E2004F0B6FF012337E639
:10349000504B63495F6704221D2004F0ADFF0123F8
:1034A0002EE64C4B5F491F6704221C2004F0A4FF4A
:1034B000012325E6474B5C49DF6604221B2004F00C
:1034C0009BFF01231CE6434B58499F6604221A20A8
:1034D00004F092FF012313E63E4B55495F66042238
:1034E000192004F089FF01230AE63A4B51491F666F
:1034F0000422182004F080FF012301E6354B4E49D9
:10350000DF650422172004F077FF0123F8E5314B33
:103510004A499F650422162004F06EFF0123EFE55F
:103520002C4B47495F650422152004F065FF0123F9
:10353000E6E5284B43491F650422142004F05CFF94
:103540000123DDE5234B4049DF640422132004F00E
:1035500053FF0123D4E51F4B3C499F6404221220F2
:1035600004F04AFF0123CBE51A4B39495F6404227A
:10357000112004F041FF0123C2E5164B35491F64B9
:103580000422102004F038FF0123B9E5114B324921
:10359000DF6304220F2004F02FFF0123B0E50D4B61
:1035A0000D499F6304220E2004F026FF0123A7E5A6
:1035B000084B0A495F6304220D2004F01DFF01231C
:1035C0009EE5044B06491F6304220C2004F014FFFF
:1035D000012395E5C09BFF1F112200008D210000F3
:1035E0000921000085200000012000007D1F00004F
:1035F000F91E0000751E0000F11D00006D1D000089
:10360000E91C0000651C0000E11B00005D1B0000C0
:10361000D91A0000592B0000D52A0000512A0000B9
:10362000CD29000049290000C528000041280000DC
:10363000BD27000039270000B52600003126000014
:10364000AD25000029250000A5240000212400004C
:103650009D2300001923000095220000374B3849B4
:10366000DF6204220B2004F0C7FE012348E5334B40
:1036700034499F6204220A2004F0BEFE01233FE584
:103680002E4B31495F620422092004F0B5FE01236C
:1036900036E52A4B2D491F620422082004F0ACFEB7
:1036A00001232DE5254B2A49DF610422072004F080
:1036B000A3FE012324E5214B26499F610422062015
:1036C00004F09AFE01231BE51C4B23495F61042291
:1036D000052004F091FE012312E5184B1F491F61DC
:1036E0000422104604F088FE012309E5134B1C490F
:1036F000DF600422032004F07FFE012300E50F4B6E
:1037000018499F600422022004F076FE0123F7E4AA
:103710000A4B15495F600422012004F06DFE01236D
:10372000EEE4064B11491F600422002004F064FE01
:103730000123E5E4002215E50023E1E4C09BFF1F1F
:1037400085200000012000007D1F0000F91E000000
:10375000751E0000F11D00006D1D0000E91C000039
:10376000651C0000E11B00005D1B0000D91A000071
:103770002DE9F04FA348A44C93B003F005FD0721B9
:10378000A24803F045FB5A21A04803F047FB002361
:103790004FF4E132A260C4F8E43404F27C42C4F88D
:1037A000E834C4F8F034C4F8EC3402E00133192BE7
:1037B0000AD052F8041F0029F8D103F59071944AF9
:1037C00044F8212064335360924A002302E001331D
:1037D000192B0AD052F8041F0029F8D103F5907173
:1037E0008D4A44F82120643353608C4A002302E060
:1037F0000133192B0BD052F8041F0029F8D1884A45
:1038000004EB83017D33C1F81C249360D460834AA8
:10381000002302E00133192B0BD052F8041F0029BA
:10382000F8D1804A04EB83017D33C1F81C249360F6
:10383000D4607A4A002302E00133192B0BD052F8EE
:10384000041F0029F8D1784A04EB83017D33C1F8C5
:103850001C249360D460754B94F8F824DFF8E0A141
:10386000734EDFF8E09102930192A3F50775019B77
:10387000002B40F0068133680A93DDF828B0D4F8B5
:10388000003542F6F822C3EB0B03934284BF9DF848
:10389000043085F8F834D4F8E43433B1D5F804357D
:1038A0009B4584BF0023C5F8E434A2693AB133686C
:1038B0000E930E9BCBEB03039A42C0F0DA81606853
:1038C00003685B694B4554D105F05AFF002853DB70
:1038D000D4F8F434D4F8E4240344072AC4F8F434C4
:1038E00000F01D817AB9FF2800F02C8133680D9318
:1038F0000D9B41F28831CBEB03038B42D5D9424B70
:1039000083F8F824B7E7012A00F02481022A00F0A6
:103910007581032A00F07D81042A00F08481052A44
:1039200000F09081062A00F09581082ABDD1414A15
:103930001A4000239A42C4F8E434C0F2A481FF2A5A
:10394000B3D1D4F8EC34002B00F0F7820A2B00F04E
:10395000A381062B00F0E8810B2B00F09981BC338A
:1039600055F823000028A0D0036833491B68984706
:103970009BE798470028ABDA94F8F8340193002BC2
:103980003FF479AFD5F8FC3440F6C412C3EB0B0317
:1039900093427FF66CAFFF21FE27284B85F81C125F
:1039A0000821002285F81D7285F81E12F7270A21CA
:1039B00003F1090085F8232285F8242285F82522C1
:1039C00085F8262285F8272285F8282285F82922DD
:1039D00085F82A2285F81F2285F8222285F8207290
:1039E00085F8211201E013F8011F98420A44FAD128
:1039F000029BD24384F82B22984603F10F07FF2144
:103A000028E000BF0488FF1FC894FF1FA093FF1F7A
:103A10007C93FF1F4499FF1FF492FF1FE098FF1F44
:103A20005C9BFF1F789BFF1F4893FF1FE496FF1FBF
:103A3000509CFF1FFF000080E494FF1FE996FF1FCA
:103A4000210A00000908000005F084FF47450BD05B
:103A500018F8011F626813681B6853450846F3D0C5
:103A6000104698474745F3D133680993099BE360B3
:103A700094F8F8340193019BC4F8FCB4002B3FF494
:103A8000FAAEA04EA04D0FCE0FC52B46326823F8DC
:103A900017290126FF210022A8194FF0120EFE2738
:103AA00084F82362E825172684F81C12072184F87D
:103AB00024E284F8252284F8262284F8272284F838
:103AC0001F2284F8222284F81D7284F81E6284F872
:103AD000205284F8211201E013F8011F98420A4491
:103AE000FAD1029DD24384F83A2205F11E06FF2145
:103AF00005E005F02FFFB5420BD015F8011F6268F5
:103B000013681B6853450846F3D010469847B542E2
:103B1000F3D1012004F070FE13B0BDE8F08FD5F8AA
:103B2000F024D5F8E834A918013B01320877C5F82C
:103B3000F024C5F8E834002B7FF4B7AE0823C4F8AE
:103B4000E434B2E601220BF11403C5F8E424C5F80D
:103B50000435AAE6FE2871D095F8F8240023C5F8AC
:103B6000E434002A7FF4A1AEFF21FE27674B85F8DD
:103B70001C12082185F81D7285F81E12F7270A21EC
:103B800085F8232285F8242285F8252285F8262227
:103B900085F8272285F8282285F8292285F82A2207
:103BA00085F81F2285F8222203F1090085F820728A
:103BB00085F8211201E013F8011F83420A44FAD16B
:103BC000029BD24384F82B221F4603F10F08FF21EA
:103BD00005E005F0BFFE47450BD017F8011F6268EE
:103BE00013681B6853450846F3D01046984747456D
:103BF000F3D133680C930C9BE36056E60022032359
:103C0000C5F8E804C5F8F404C5F8F024C5F8E434B0
:103C10004BE6D5F8E83403EB00200423C5F8E804AC
:103C2000C5F8E43441E63A4A1A40002A26DBFF2A66
:103C30000CBF05230023C4F8E43436E60223C5F89C
:103C4000E43432E60623C5F8EC04C5F8F404C5F8FC
:103C5000E4342AE6D5F8EC34D5F8E82403EB002365
:103C60000721C5F8EC34C5F8E414002A3FF466AF28
:103C70001BE6284B93F8F8340193F8E5013A62F01B
:103C8000FF020132D3E7013A62F0FF02013256E649
:103C9000002385F8F83408E633680F930F9BEA6831
:103CA0001D48316811919B1A296ADFF874E0DFF82A
:103CB0007480DDF844C0EA69A0FB0307BF094FF434
:103CC0007A708E4400FB173308FB03E30393124B17
:103CD0001249A3FB0C3E4FEA9E1E039B013A00FBD8
:103CE0001EC03A4408FB1033CEEB0202081F6B6182
:103CF0002A6103F009FE33681093109BC5F8003564
:103D0000D3E500BFBCD70000F096FF1FE996FF1F68
:103D1000FF000080C894FF1FD34D6210DC94FF1F8A
:103D200000CA9A3B40420F00EF69D5F810359F4218
:103D300006D9B900D5F8180508F0A4FEC5F818058D
:103D4000C4F81075002F00F0E680A14A042302F2A7
:103D5000145E002792F8221092F821C092F82000F9
:103D6000090441EA0C2192F823C0014341EA0C61A5
:103D7000C4F81415D4F81815DEF8000041F827002F
:103D8000D4F810050137B842194602F1040203F1D4
:103D90000403DFD8059301F10B0301F1090201F1DE
:103DA0000808049301F10C0303924746481D01F1F2
:103DB000060E01F1070C01F10A020693A644059BC9
:103DC000211823449EF81C0091F81CE01B7FD4F8B6
:103DD0001C15A44400049CF81CC040EA0E200343B8
:103DE00043EA0C638B420AD99900D5F8240507925F
:103DF000059308F047FE079A059BC5F82405C4F80B
:103E00001C35002B00F0E280DFF8D0E1EB19002137
:103E10009A7F93F81DC0187F120442EA0C2293F88F
:103E20001FC0024342EA0C62C4F82025D4F82425BE
:103E3000DEF8000042F82100D4F81C2501318A4246
:103E4000384603F1040307F10407E1D8431D039347
:103E5000C31DB846821D049300F10807039B234449
:103E60002244187F049B117FD4F82825A0442344C2
:103E70009E46090498F81C309EF81C8041EA0021F7
:103E80000B4343EA0868904507D94FEA8801D5F803
:103E9000300508F0F7FDC5F83005C4F82885B8F1FD
:103EA000000F34D0DFF838E100210EF5A26C07F1E5
:103EB0001C080023A0441A4618F8010B9840083348
:103EC000202B42EA0002F7D1381D024490420AD268
:103ED00007F11F0323440746013793F8018003F8D5
:103EE000018B9742F8D3A3184FF000070138DF7613
:103EF0007044D4F83035C4F82C05DCF8000043F8E1
:103F00002100D4F8283501318B421746CFD8012340
:103F100084F80835C9E40C2306930B230493092382
:103F20004FF008080393042347460A224FF0070C7A
:103F30004FF0060E0520059340E72648A0F22A21FF
:103F400000F8073CFE2781F81C224FF0080C0A46B7
:103F500081F8243281F8253281F8263281F827321F
:103F600081F8283281F8293281F82A3281F81D72CD
:103F700081F81F3281F82232A0F1090EF72781F86B
:103F80001EC20A2182F8207282F82112724601E0D4
:103F900012F8011F82420B44FAD10F4FDB43A7F105
:103FA0000F02029284F82B329046FF2105E005F0C3
:103FB000D1FCB84516D018F8011F626813681B6859
:103FC00053450846F3D010469847F2E7069F45E769
:103FD000C894FF1FF296FF1FF396FF1FE899FF1F7B
:103FE000E494FF1F33680B93D14BCDF804B01A460D
:103FF0000B9BE36093465BF8043F002B00F0BF800F
:1040000058689A6801680392D3F800908B689847C3
:10401000DBF80030804658680368DB689847DBF8B7
:104020000030039A1E69632E074604DD94F8F834C5
:10403000002B00F0A480C2F30723484684F8232213
:1040400084F8243208F03CFF0346020A000C4FEAD1
:10405000136E494684F8262284F827021A46B5488A
:1040600084F82532039384F828E204F0CBF8404624
:1040700008F026FF039B024603F229202044063362
:10408000002122FA01FE0831202900F801EBF8D1C5
:10409000A94804334146184402EB030804F0B2F87F
:1040A000384608F00DFF08F22322814622440023FF
:1040B00029FA03F10833202B02F8011BF8D19E4B9B
:1040C00008F10408394603EB08004A4604F09AF860
:1040D00009EB0800071D5FFA87FCC7F3072E04EB06
:1040E00000080CEB0E010022C943022388F8243299
:1040F00088F8232288F8252288F8262284F82012BE
:10410000F1B246F30726FF234FF0FE0884F822623F
:104110007E1C84F81EC284F81FE284F81C3284F8E6
:104120001D8284F821120BDB00F22626834B2E44DD
:1041300001E013F8011FB3420A44FAD1D343DBB2C2
:10414000E2190837B7F5007F82F8233200F34B817C
:10415000002F14DD00F22720794E2F1803E005F020
:10416000F9FBBE420BD0626816F8011F13681B688A
:1041700053450846F3D010469847BE42F3D1714BE1
:104180009B457FF438AF9B465BF8040F002800F096
:10419000BF8090E80C0003939268D0F80890904795
:1041A0008046DBF800000268D26890470746DBF8DB
:1041B000000002685268904763280646039B04DDAE
:1041C00094F8F824002A00F0A380C3F3072248469D
:1041D00084F8233284F8242208F072FE0346020A8F
:1041E000000C4FEA136E494684F8262284F8270211
:1041F0001A46504884F82532039384F828E204F0E4
:1042000001F8404608F05CFE039B024603F22920B9
:1042100020440633002122FA01FE0831202900F84B
:1042200001EBF8D1444804334146184402EB03083B
:1042300003F0E8FF384608F043FE08F223228146E7
:104240002244002329FA03F10833202B02F8011B32
:10425000F8D1394B08F10408394603EB08004A4607
:1042600003F0D0FF09EB0800071D5FFA87FCC7F3D6
:10427000072E04EB00080CEB0E010022C9430223B9
:1042800088F8243288F8232288F8252288F8262204
:1042900084F82012F1B246F30726FF234FF0FE0800
:1042A00084F822627E1C84F81EC284F81FE284F81F
:1042B0001C3284F81D8284F821120BDB00F22626C2
:1042C0001E4B2E4401E013F8011FB3420A44FAD1F9
:1042D000D343DBB2E2190837B7F5007F82F8233207
:1042E00034DC002F14DD00F22720154E2F1803E0D8
:1042F00005F030FBBE420BD0626816F8011F136850
:104300001B6853450846F3D010469847BE42F3D188
:104310000D4B9B457FF438AFDDF804B0C4F8FCB416
:104320000123C4F800B584F8F834FFF7AABB00BF36
:10433000E098FF1FF196FF1FEB96FF1FE996FF1F06
:10434000E396FF1F4499FF1FA899FF1F4D4F4E4E44
:104350000FCF0FC60FCF0FC60FCF0FC697E80300C2
:1043600000234FF0030E3827FF2285F823E285F85B
:1043700024724FF0FE0E3D2785F8253285F826324F
:1043800085F8273286E80300C22185F81C2207221F
:10439000F01D85F81F3285F82232373E85F81DE280
:1043A00085F81E7285F8201285F8212201E016F8A2
:1043B000012FB0421344FAD1344EDB4384F860320B
:1043C000A6F14407FF2005E005F0C4FABE429FD0E5
:1043D00017F8010F626813681B6853450146F3D054
:1043E00010469847F2E7274F274E0FCF0FC60FCF43
:1043F0000FC60FCF0FC697E8030000234FF0030E40
:104400003827FF2285F823E285F824724FF0FE0E4C
:104410003D2785F8253285F8263285F8273286E84B
:104420000300C22185F81C220722F01D85F81F32E7
:1044300085F82232373E85F81DE285F81E7285F830
:10444000201285F8212201E016F8012FB042134412
:10445000FAD10E4EDB4384F86032A6F14407FF2008
:1044600006E005F077FAB7423FF489AE17F8010F7E
:10447000626813681B6853450146F2D0104698479E
:10448000F1E700BF80D70000F096FF1F2897FF1FBD
:104490002DE9F04100213448344C03F03FFE002167
:1044A0002071334803F03AFE00216071314803F077
:1044B00035FE314B314ADD689968C0B2A0712B6876
:1044C0001B6893424BD1632903DD95F8F834002B28
:1044D00043D0237994F805E085F82502FF27C8B278
:1044E000FE2641F307210324002285F82332FC2312
:1044F00085F8203285F8221285F824E285F81C72AE
:1045000085F81D6285F81E4285F81F2285F8210274
:1045100005F2212305F2252101E013F8010F99424C
:104520000244FAD1D243164E85F8262205F21B2406
:1045300005F2262703E005F00DFAA7420BD06A68C2
:1045400014F8011F13681B68B3420846F3D01046E5
:104550009847A742F3D1BDE8F081BDE8F08122463B
:104560002846BDE8F0411847489AFF1F2C94FF1FCA
:10457000649AFF1F809AFF1F4893FF1F612C000061
:10458000210A00002DE9F04784B0194D6846FEF776
:104590005FFC0199029A039BA9606846EA602B615F
:1045A000FEF7A6FC0199029A039BA961EA612B62BE
:1045B0006846FEF7F1FC0F4B0F4ADC68DDF804900B
:1045C0002168DDF80880D1F800A0039F9E68C5F837
:1045D00028909245C5F82C802F6340F01482632EFA
:1045E0000CDD94F8F834002B00F0BE8106E000BF2B
:1045F000A09AFF1F789BFF1F612C0000A868C0F3E2
:10460000C7520346002A40F0B28192461146C3F3D6
:10461000C34211434FEA431E002284F82912D910E5
:10462000DB1284F8271284F8232284F8242284F8E9
:10463000252284F826E284F82832002107F0DCFEE7
:10464000002840F0C28184F82AA2E868C0F3C7526B
:104650000346002A00F0958102F56072110149B20B
:10466000C2F3071AC3F3C34211434FEA431E0022A9
:1046700084F83112D910DB1284F82F1284F82B221F
:1046800084F82C2284F82D2284F82EE284F830322B
:10469000002107F0B1FE002840F0B08184F832A27A
:1046A0002869C0F3C7520346002A00F0708102F562
:1046B0006072110149B2C2F3071AC3F3C342114336
:1046C0004FEA431E002284F83912D910DB1284F815
:1046D000371284F8332284F8342284F8352284F89F
:1046E00036E284F83832002107F086FE002840F0D8
:1046F000808184F83AA2A869C0F3C7520346002A11
:1047000000F0428102F56072110149B2C2F3071A4A
:10471000C3F3C34211434FEA431E002284F84112FF
:10472000D910DB1284F83F1284F83B2284F83C2233
:1047300084F83D2284F83EE284F84032002107F0FC
:104740005BFE002840F0378184F842A2E869C0F39C
:10475000C7520346002A00F0268102F5607211015B
:1047600049B2C2F3071AC3F3C34211434FEA431ECF
:10477000002284F84912D910DB1284F8471284F819
:10478000432284F8442284F8452284F846E284F8DF
:104790004832002107F030FE002840F0078184F8FD
:1047A0004AA2286AC0F3C7520346002A00F0F880E4
:1047B00002F56072110149B2C2F30715C3F3C34297
:1047C00011434FEA431E002284F85112D910DB1224
:1047D00084F84F1284F84B2284F84C2284F84D223E
:1047E00084F84EE284F85032002107F005FE0028DC
:1047F00040F0FA8084F85252C9F3C7524B46002A5F
:1048000000F0CB8002F56072110149B2C2F30715C6
:10481000C3F3C34211434FEA431E002284F85912E6
:10482000D910DB1284F85712484684F8532284F8D2
:10483000542284F8552284F856E284F85832002134
:1048400007F0DAFD002840F0CA8084F85A52C8F315
:10485000C7524346002A00F09D8002F560721501A0
:104860006DB2C2F30719C3F3C3410D434FEA431EB0
:104870000021DA10DB1284F85B1284F85C1284F8F1
:104880005D12404684F8615284F85EE284F85F224B
:1048900084F86032002107F0AFFD002840F09080DE
:1048A00084F86292C7F3C7523B46002A66D002F5ED
:1048B0006072110149B2C2F30715C3F3C342114339
:1048C0004FEA431E002284F86912D910DB1284F8E3
:1048D0006712384684F8632284F8642284F86522DB
:1048E00084F866E284F86832002107F085FD00282C
:1048F00070D184F86A524820B723F1B2FF27FE2511
:10490000002246F3072684F81E0284F8203284F839
:104910001C7284F81D5284F81F2284F8211284F836
:10492000226204F2212304F26A2001E013F8011F3D
:1049300098420A44FAD1D243364E84F86B2204F2EC
:104940001B2504F26B2703E005F004F8BD420BD0F1
:10495000626815F8011F13681B68B3420846F3D05C
:1049600010469847BD42F3D104B0BDE8F08702F588
:104970006072110149B2C2F3071A48E615461146A2
:104980009BE7924611466DE692461146C0E6924676
:10499000114692E69146154665E71546114637E7FA
:1049A000154611460AE792461146DCE66AF07F0298
:1049B00084F84A22F5E66AF07F0284F84222C5E6CE
:1049C00069F07F0284F862226CE76AF07F0284F863
:1049D0002A223AE665F07F0284F86A228BE765F0C6
:1049E0007F0284F85A2232E765F07F0284F852226F
:1049F00002E76AF07F0284F83A227CE66AF07F02DE
:104A000084F832224CE62A4631462046D04704B08C
:104A1000BDE8F087210A000038B51849054607F0BF
:104A2000EBFC20BB04461649284607F003FDB8B945
:104A30001349284607F03AFA124907F03FFB12499A
:104A400007F0F0FB114907F031FA114907F036FB86
:104A500007F0FAFC01460F4802F0E0F9284638BD9D
:104A6000074D0C48214602F0D9F9284638BD034DC0
:104A70000848B42102F0D2F9284638BDE17AD4BE04
:104A8000E17AD43EDB0F49C0E17A543FDB0F494065
:104A9000E02E6542A093FF1F2DE9F04FDFF8D4A26E
:104AA000A14BA24ADAF80010A14C1B68126893B01F
:104AB0000EA800919F4902F0E5FF237F012B40F2F1
:104AC000CD8172B6A76962B69B4E606833680A935F
:104AD000DDF828B0994DC0EB0B0006F059FE90A30D
:104AE000D3E9002306F0F4FFCDE90201A068381AEB
:104AF00006F05EFEC4F804B08046A76020688946D0
:104B000006F056FE02460B464046494606F0E0FFD8
:104B1000DDE9022306F0DCFF07F04AF92B7F012BC9
:104B2000804640F2D58172B6AF6962B633680993A8
:104B3000DDF824906868824CC0EB090006F028FE7E
:104B400077A3D3E9002306F0C3FFCDE90201A868EB
:104B5000381A06F02DFEC5F80490CDE90401AF60C7
:104B6000286806F025FE02460B46DDE9040106F042
:104B7000AFFFDDE9022306F0ABFF07F019F9237F51
:104B8000012B814640F2DE8172B6A76962B63368B6
:104B90000893DDF820B060686A4DC0EB0B0006F0AA
:104BA000F7FD5FA3D3E9002306F092FFCDE90201F0
:104BB000A068381A06F0FCFDA760CDE90401C4F82E
:104BC00004B0206806F0F4FD02460B46DDE904015E
:104BD00006F07EFFDDE9022306F07AFF07F0E8F831
:104BE0002B7F012B074640F2E58172B6AC6962B6B5
:104BF000336807936868DDF81CB04E4EC0EB0B00BD
:104C000006F0C6FD46A3D3E9002306F061FFCDE917
:104C10000201A868201A06F0CBFDAC60CDE90401C2
:104C2000C5F804B0286806F0C3FD02460B46DDE96E
:104C3000040106F04DFFDDE9022306F049FF07F00D
:104C4000B7F80446404607F0E5F905460E9807F028
:104C5000E1F92A4601463C4802F0B4F907F0A8F809
:104C600001463A4802F002FE484607F0D3F90546ED
:104C70000F9807F0CFF92A460146354802F0A2F90D
:104C800007F096F80146334802F0F0FD384607F089
:104C9000C1F90546109807F0BDF92A4601462E488D
:104CA00002F090F907F084F801462C4802F0DEFD8E
:104CB000204607F0AFF90546119807F0ABF92A46F0
:104CC0000146274802F07EF907F072F801462548B0
:104CD00002F0CCFD3378023B012B40F2B28001940C
:104CE00000974B46424631460BA802F02BFF1E4967
:104CF0001E4FCC681E4D23680B981E680C9A0D9BA6
:104D000089686860BE42AA60EB6040F094806329C5
:104D100032DD94F8F854002D00F08A802CE000BFBA
:104D200000000000004CED40749BFF1F709BFF1FB4
:104D30003494FF1F2C93FF1F509CFF1FA894FF1F4C
:104D40005C93FF1F8894FF1FD093FF1FBC93FF1F2E
:104D5000189BFF1F1494FF1F009AFF1FF09AFF1F5C
:104D60005894FF1F489BFF1F5C9BFF1F612C000096
:104D7000AC93FF1F309AFF1F060A050C4FEA106E16
:104D8000170A84F8230284F82722180C84F8246276
:104D900084F82552160C1D0A120E84F82B3284F862
:104DA00026E21B0E84F828724FF0FF0E84F8296269
:104DB000FE2784F82A220C2684F82C52002284F83C
:104DC0002D02F325C8B241F3072184F82E3284F86E
:104DD000221284F81CE284F81D7284F81E6284F8A2
:104DE0001F2284F8205284F8210204F2212304F2C5
:104DF0002E2101E013F8010F99420244FAD1D24367
:104E0000B74E84F82F2204F21B2504F22F2703E06B
:104E100004F0A0FDAF420BD0626815F8011F1368C3
:104E20001B68B3420846F3D010469847AF42F3D10F
:104E300013B0BDE8F08F2A462046B04713B0BDE856
:104E4000F08FDAF80000FFF7E7FDCDF8009002469A
:104E5000434631460BA802F039FE48E772B6E368D4
:104E600021691A780878617D237D084202EA0302ED
:104E700000F0F180A37D03F003030AB143F00403C3
:104E800043F008039A10013BA2750D2B3FF61AAEB2
:104E900001A252F823F000BFE5500000D9500000F5
:104EA000D1500000D9500000C54A0000C950000090
:104EB000E5500000E5500000C9500000C54A000060
:104EC000D9500000D1500000D9500000E55000003A
:104ED00072B6EB6829691A780878697D2B7D0842DB
:104EE00002EA030200F0AE80AB7D03F003030AB1D7
:104EF00043F0040343F008039A10013BAA750D2BFD
:104F00003FF612AE01A252F823F000BFC1500000DC
:104F1000B9500000B1500000B9500000294B00000A
:104F2000A9500000C1500000C1500000A95000006D
:104F3000294B0000B9500000B1500000B9500000EA
:104F4000C150000072B6E36821691A780878617D63
:104F5000237D084202EA030264D0A37D03F0030329
:104F60000AB143F0040343F008039A10013BA27511
:104F70000D2B3FF60AAE01A252F823F0A15000001B
:104F80009950000091500000995000008B4B000098
:104F900089500000A1500000A1500000895000007D
:104FA0008B4B000099500000915000009950000078
:104FB000A150000072B6EB6829691A780878697DFB
:104FC0002B7D084202EA030234D0AB7D03F00303D9
:104FD000002A40F08B8043F008039A10013BAA7529
:104FE0000D2B3FF603AE01A252F823F081500000D2
:104FF000795000007150000079500000ED4B000026
:10500000695000008150000081500000695000008C
:10501000ED4B000079500000715000007950000005
:1050200081500000A37D03F00303002A9DD043F0CC
:1050300004039AE7AB7D03F00303002ACDD043F0CD
:105040000403CAE7AB7D03F00303002A3FF454AF27
:1050500043F0040350E7A37D03F00303002A3FF469
:1050600011AF43F004030DE7AC69023CAC61BEE54F
:10507000AC690234AC61BAE5AC69013CAC61B6E53F
:10508000AC690134AC61B2E5A769023FA7617DE577
:10509000A7690237A76179E5A769013FA76175E5AF
:1050A000A7690137A76171E5AF69023FAF613CE5D0
:1050B000AF690237AF6138E5AF69013FAF6134E5F1
:1050C000AF690137AF6130E5A769023FA761FAE434
:1050D000A7690237A761F6E4A769013FA761F2E477
:1050E000210A0000A7690137A761ECE443F004033B
:1050F00071E700BF2DE9F04FB94EBA4C3368226812
:1051000097B00493049B9B1A312B00F234823368CE
:10511000B54A0693069B12689B1AB3F5C87F06D35F
:10512000B248B349B34A002303600B60136033688D
:10513000B14F0793079B3A689B1A202B00F2A98175
:10514000AE4C3368AE4D0993099B2A68A44F9B1A55
:10515000092B05D9FFF79CF93B680A930A9B2B6042
:1051600033680B930B9FD4F80035A449FB1A42F621
:10517000F822934284BF002381F8F834D4F8E43451
:105180009E4A33B1D2F804359F4284BF0023C2F84F
:10519000E434DFF87882994DA2692AB133680F931D
:1051A0000F9BDB1B9A4221D3606803685B69434510
:1051B0006AD104F0E5FA002869DBD4F8F434D4F8B5
:1051C000E424DFF838E20344072AC4F8F43449D071
:1051D0007AB9FF2800F0B88033680E930E9B41F235
:1051E0008831DB1B8B42D7D98EF8F82417B0BDE885
:1051F000F08F012A00F0B080022A00F01D81032AFE
:1052000000F02581042A00F02C81052A00F0398164
:10521000062A00F0A181082ABED17A4A1A4000234A
:105220009A42C4F8E434C0F20B82FF2AB4D1D4F815
:10523000EC34DFF8C8A1002B00F06A830A2B00F0E1
:105240000882062B00F04E820B2B00F0FE81BC334F
:1052500055F8230000289FD003680AF11C011B6841
:10526000984799E7D5F8F024D5F8E834A918013B18
:1052700001320877C5F8F024C5F8E834002B8BD14B
:105280000823C4F8E43487E79847002895DA94F8AF
:10529000F8345A48002BA9D0D0F8FC3440F6C41298
:1052A000FB1A9342A2D9FF23FE21002280F81C3270
:1052B00080F81D12F72308250A2180F8203280F893
:1052C000232280F8242280F8252280F8262280F8E4
:1052D000272280F8282280F8292280F82A2280F8C4
:1052E0001F2280F8222280F81E5280F8211200F23C
:1052F000212300F22A2001E013F8011F83420A440F
:10530000FAD1DFF80C81404DD24384F82B2208F10A
:105310000F09FF2005E004F01DFBC1450BD018F874
:10532000010F626813681B68AB420146F3D0104658
:105330009847C145F3D133681393139BC4F8FC74A9
:10534000E36017B0BDE8F08F012207F11403C5F840
:10535000E424C5F804351FE7FE2800F08E8095F898
:10536000F8240023C5F8E434002A7FF415AFFF23A6
:10537000FE21082085F81C3285F81D12F7230A212A
:1053800085F8203285F823220EF2212385F8242285
:1053900085F8252285F8262285F8272285F82822F7
:1053A00085F8292285F82A2285F81F2285F82222ED
:1053B00085F81E0285F821120EF22A2E01E013F85C
:1053C000011F9E450A44FAD1DFF844A0DFF8389067
:1053D000D24384F82B220AF10F0BFF211CE000BFFF
:1053E000509CFF1F1094FF1FA893FF1F709BFF1F6F
:1053F000749BFF1F309AFF1F2894FF1FC894FF1F44
:105400009C9AFF1FFF000080210A0000090800008D
:10541000E496FF1F1AF8011F626813681B684B456A
:10542000084640F0CB8204F095FADA45F2D13368B1
:105430000D930D9BE360AFE600220323C5F8E8045B
:10544000C5F8F404C5F8F024C5F8E434A4E6D5F8AA
:10545000E83403EB00200423C5F8E804C5F8E4347D
:105460009AE6964A1A40002AC0F2E580FF2A0CBF4D
:1054700005230023C4F8E4348EE60223C5F8E4349F
:105480008AE60623C5F8EC04C5F8F404C5F8E4344C
:1054900082E68B4C25783DB1FFF774F8894C336870
:1054A0000893089B3B604CE6FDF7ACFC84462070FB
:1054B000002867D0844B834C0FCB04F50A7EAEE8FE
:1054C00007002EF8023B01211B0C8EF8003014203F
:1054D000EB234FF00F094FF0FF084FF0FE0C84F85C
:1054E0002312072184F81E0284F8203284F8255202
:1054F00084F8265284F8275284F81F5284F82252E6
:105500002A4684F8249284F81C8284F81DC284F808
:10551000211204F2212304F2362001E013F8011FC6
:1055200098420A44FAD1DFF8B081684DD24384F83A
:10553000372208F11B09FF2105E004F00BFAC845EA
:10554000ADD018F8011F626813681B68AB420846AB
:10555000F3D010469847F2E7D5F8EC34D5F8E824B4
:1055600003EB00230721C5F8EC34C5F8E414002A46
:105570003FF486AE10E6FFF78FFA33680593059B7C
:105580002360C4E5DFF854E14E4CBEE80F0004F59B
:105590000A750FC5BEE80F000FC5BEE80F000FC5A6
:1055A000DEF800302B60FF220723FE21C6204FF0DB
:1055B00004094FF034084FF0390E84F81C2284F8A7
:1055C00025C284F826C284F827C284F8239284F87E
:1055D0002482624684F81D12194684F8200284F859
:1055E000213284F81FC284F822C284F81EE204F239
:1055F000212304F25B2001E013F8011F98420A44C2
:10560000FAD1DFF8D480314DD24384F85C2208F11E
:105610004009FF2106E004F09DF9C8453FF43FAF83
:1056200018F8011F626813681B68AB420846F2D085
:1056300010469847F1E7013A62F0FF02013215E7A0
:10564000013A62F0FF020132EFE5002385F8F834F9
:10565000A2E533681093109BEA68316812911C49E7
:10566000286ADFF87CC0DDF848909B1AA1FB031E76
:105670004FEA9E1E4FF47A7184441648EA6901FB92
:105680001E3300FB03CC124BA3FB093B4FEA9B1BD1
:10569000013A01FB1B91724400FB11C3CBEB0202E8
:1056A0000AF114010AF110006B612A6102F02CF971
:1056B00033681193119BC5F800356DE5FF0000803C
:1056C000139BFF1FC894FF1FD0D70000210A0000C2
:1056D000D34D621040420F00E496FF1FE0D7000058
:1056E00000CA9A3BD5F81C90D5F81035994507D9D2
:1056F0004FEA8901D5F8180507F0C4F9C5F818056F
:10570000C4F81095B9F1000F00F0F080AD4A042103
:1057100002F2145C4FF0000E92F8223092F82190C1
:1057200092F820001B0443EA092392F823900343D4
:1057300043EA0963C4F81435D4F81835DCF80000DE
:1057400043F82E00D4F810350EF1010E73450846CB
:1057500002F1040201F10401DED8029100F10B0113
:1057600000F1080B009100F10C01D94600F1050E83
:1057700000F1060C00F1070A00F1090300F10A022A
:105780000191A44402999CF81CC0A64421449EF8AF
:105790001C00097FA2444FEA0C4C9AF81CE04CEA2A
:1057A000002C4CEA010141EA0E6AD4F81C158A4526
:1057B0000BD94FEA8A01D5F824050393029207F02A
:1057C00061F9039B029AC5F82405C4F81CA5BAF137
:1057D000000F00F08880DFF8F8E105EB09020021F6
:1057E000937F92F81DC0107F1B0443EA0C2392F8AC
:1057F0001FC0034343EA0C63C4F82035D4F82435B2
:10580000DEF8000043F82100D4F81C3501318B424A
:10581000484602F1040209F10409E1D8C11DCB4652
:10582000431D821D009100F1080923442244187F82
:10583000009B117FD4F828252344A3449E460904E5
:105840009BF81C309EF81CA041EA00210B4343EA60
:105850000A6A924507D94FEA8A01D5F8300507F060
:1058600011F9C5F83005C4F828A5BAF1000F36D0F3
:10587000DFF860E100220EF5A26A944609F11C0BE4
:105880000023A34419461BF8010B98400833202B32
:1058900041EA0001F7D109F10400014481420BD92A
:1058A00009F11F032344814609F1010993F801B06E
:1058B00003F801BB4945F7D86318013883F81BC0CA
:1058C0007044D4F83035C4F82C05DAF8000043F8F9
:1058D0002200D4F82835013293428946CED80123DC
:1058E00084F8083558E4DDF804909EE70B220C2379
:1058F0004FF0080B04218DE80C00D9460A22092339
:105900004FF0070A4FF0060C4FF0050E029138E7F2
:105910009B460AF223212C4B139313A89146CDF8F2
:1059200050B0CDF854B0FAF7A1FD0146C1F30722FB
:10593000C0B28318DB438AF81E02FE258AF82032A3
:105940000A204B1C8AF81C928AF822B28AF81F227D
:105950008AF81D528AF82102C0F2268201F222251D
:105960005B4655440AF2212201E012F8010FAA42D7
:105970000344FAD1DB43DBB2621801F10805B5F547
:10598000007F82F823320F4826DC002D26DD01F24D
:1059900023210E4D00EB010800F21B2903E003F068
:1059A000D9FFC1451AD0626819F8011F13681B6836
:1059B000AB420846F3D010469847F2E710469847A6
:1059C00033E500BFC894FF1FC4D30000210A0000C4
:1059D000E899FF1FE494FF1FFCF706F833680C9367
:1059E000D34D0C9BE36005F1640655F8043F002B92
:1059F00000F0DC8058689A6801680092D3F800B023
:105A00008B6898472B68824658680368DB6898471C
:105A10002B68009AD3F81080B8F1630F814604DD3B
:105A200094F8F834002B00F0C180C2F3072384F807
:105A3000232284F82432584607F042FA03464FEAFC
:105A4000136E020A000C594684F8253284F8262287
:105A500084F827021A4684F828E2B648009302F038
:105A6000D1FB504607F02CFA009B024603F2292096
:105A700020440633002122FA01FE0831202900F8D3
:105A800001EBF8D1AC4804335146184402EB030A49
:105A900002F0B8FB484607F013FA0AF223228346C5
:105AA000224400232BFA03F10833202B02F8011BB8
:105AB000F8D1A14B0AF1040A494603EB0A005A4601
:105AC00002F0A0FB0BEB0A0E0EF1040C04EB0E012E
:105AD0005FFA8CF9CCF307200022022309EB000BBC
